00001Alice Johnson       HR        202401010050000005550000000user0@example.com        CA0000000NANALYST        00001CC00009000000000
00002Bob Smith           IT        202401020050010255550000001user1@example.com        NY0000125YENGINEER       00002CC00019000100015
00003Carol White         FIN       202401030050020505550000002user2@example.com        TX0000250YMANAGER        00003CC00029000200030
00004David Lee           OPS       202401040050030755550000003user3@example.com        FL0000375YCLERK          00004CC00039000300045
00005Eve Black           SALES     202401050050040005550000004user4@example.com        WA0000500YDIRECTOR       00005CC00049000400060
00006Frank Green         HR        202401060050050255550000005user5@example.com        CA0000625NANALYST        00006CC00059000500075
00007Grace Kim           IT        202401070050060505550000006user6@example.com        NY0000750YENGINEER       00007CC00069000600090
00008Henry Zhou          FIN       202401080050070755550000007user7@example.com        TX0000875YMANAGER        00008CC00079000700105
00009Ivy Patel           OPS       202401090050080005550000008user8@example.com        FL0001000YCLERK          00009CC00089000800120
00010Jack Brown          SALES     202401100050090255550000009user9@example.com        WA0001125YDIRECTOR       00010CC00099000900135
00011Alice Johnson       HR        202401110050100505550000010user10@example.com       CA0001250NANALYST        00011CC00109001000150
00012Bob Smith           IT        202401120050110755550000011user11@example.com       NY0001375YENGINEER       00012CC00119001100165
00013Carol White         FIN       202401130050120005550000012user12@example.com       TX0001500YMANAGER        00013CC00129001200180
00014David Lee           OPS       202401140050130255550000013user13@example.com       FL0001625YCLERK          00014CC00139001300195
00015Eve Black           SALES     202401150050140505550000014user14@example.com       WA0001750YDIRECTOR       00015CC00149001400210
00016Frank Green         HR        202401160050150755550000015user15@example.com       CA0001875NANALYST        00016CC00159001500225
00017Grace Kim           IT        202401170050160005550000016user16@example.com       NY0002000YENGINEER       00017CC00169001600240
00018Henry Zhou          FIN       202401180050170255550000017user17@example.com       TX0002125YMANAGER        00018CC00179001700255
00019Ivy Patel           OPS       202401190050180505550000018user18@example.com       FL0002250YCLERK          00019CC00189001800270
00020Jack Brown          SALES     202401200050190755550000019user19@example.com       WA0002375YDIRECTOR       00020CC00199001900285
00021Alice Johnson       HR        202401210050200005550000020user20@example.com       CA0002500NANALYST        00021CC00209002000300
00022Bob Smith           IT        202401220050210255550000021user21@example.com       NY0002625YENGINEER       00022CC00219002100315
00023Carol White         FIN       202401230050220505550000022user22@example.com       TX0002750YMANAGER        00023CC00229002200330
00024David Lee           OPS       202401240050230755550000023user23@example.com       FL0002875YCLERK          00024CC00239002300345
00025Eve Black           SALES     202401250050240005550000024user24@example.com       WA0003000YDIRECTOR       00025CC00249002400360
00026Frank Green         HR        202401260050250255550000025user25@example.com       CA0003125NANALYST        00026CC00259002500375
00027Grace Kim           IT        202401270050260505550000026user26@example.com       NY0003250YENGINEER       00027CC00269002600390
00028Henry Zhou          FIN       202401280050270755550000027user27@example.com       TX0003375YMANAGER        00028CC00279002700405
00029Ivy Patel           OPS       202401010050280005550000028user28@example.com       FL0003500YCLERK          00029CC00289002800420
00030Jack Brown          SALES     202401020050290255550000029user29@example.com       WA0003625YDIRECTOR       00030CC00299002900435
00031Alice Johnson       HR        202401030050300505550000030user30@example.com       CA0003750NANALYST        00031CC00309003000450
00032Bob Smith           IT        202401040050310755550000031user31@example.com       NY0003875YENGINEER       00032CC00319003100465
00033Carol White         FIN       202401050050320005550000032user32@example.com       TX0004000YMANAGER        00033CC00329003200480
00034David Lee           OPS       202401060050330255550000033user33@example.com       FL0004125YCLERK          00034CC00339003300495
00035Eve Black           SALES     202401070050340505550000034user34@example.com       WA0004250YDIRECTOR       00035CC00349003400510
00036Frank Green         HR        202401080050350755550000035user35@example.com       CA0004375NANALYST        00036CC00359003500525
00037Grace Kim           IT        202401090050360005550000036user36@example.com       NY0004500YENGINEER       00037CC00369003600540
00038Henry Zhou          FIN       202401100050370255550000037user37@example.com       TX0004625YMANAGER        00038CC00379003700555
00039Ivy Patel           OPS       202401110050380505550000038user38@example.com       FL0004750YCLERK          00039CC00389003800570
00040Jack Brown          SALES     202401120050390755550000039user39@example.com       WA0004875YDIRECTOR       00040CC00399003900585
00041Alice Johnson       HR        202401130050400005550000040user40@example.com       CA0005000NANALYST        00041CC00409004000600
00042Bob Smith           IT        202401140050410255550000041user41@example.com       NY0005125YENGINEER       00042CC00419004100615
00043Carol White         FIN       202401150050420505550000042user42@example.com       TX0005250YMANAGER        00043CC00429004200630
00044David Lee           OPS       202401160050430755550000043user43@example.com       FL0005375YCLERK          00044CC00439004300645
00045Eve Black           SALES     202401170050440005550000044user44@example.com       WA0005500YDIRECTOR       00045CC00449004400660
00046Frank Green         HR        202401180050450255550000045user45@example.com       CA0005625NANALYST        00046CC00459004500675
00047Grace Kim           IT        202401190050460505550000046user46@example.com       NY0005750YENGINEER       00047CC00469004600690
00048Henry Zhou          FIN       202401200050470755550000047user47@example.com       TX0005875YMANAGER        00048CC00479004700705
00049Ivy Patel           OPS       202401210050480005550000048user48@example.com       FL0006000YCLERK          00049CC00489004800720
00050Jack Brown          SALES     202401220050490255550000049user49@example.com       WA0006125YDIRECTOR       00050CC00499004900735
00051Alice Johnson       HR        202401230050500505550000050user50@example.com       CA0006250NANALYST        00001CC00509005000750
00052Bob Smith           IT        202401240050510755550000051user51@example.com       NY0006375YENGINEER       00002CC00519005100765
00053Carol White         FIN       202401250050520005550000052user52@example.com       TX0006500YMANAGER        00003CC00529005200780
00054David Lee           OPS       202401260050530255550000053user53@example.com       FL0006625YCLERK          00004CC00539005300795
00055Eve Black           SALES     202401270050540505550000054user54@example.com       WA0006750YDIRECTOR       00005CC00549005400810
00056Frank Green         HR        202401280050550755550000055user55@example.com       CA0006875NANALYST        00006CC00559005500825
00057Grace Kim           IT        202401010050560005550000056user56@example.com       NY0007000YENGINEER       00007CC00569005600840
00058Henry Zhou          FIN       202401020050570255550000057user57@example.com       TX0007125YMANAGER        00008CC00579005700855
00059Ivy Patel           OPS       202401030050580505550000058user58@example.com       FL0007250YCLERK          00009CC00589005800870
00060Jack Brown          SALES     202401040050590755550000059user59@example.com       WA0007375YDIRECTOR       00010CC00599005900885
00061Alice Johnson       HR        202401050050600005550000060user60@example.com       CA0007500NANALYST        00011CC00609006000900
00062Bob Smith           IT        202401060050610255550000061user61@example.com       NY0007625YENGINEER       00012CC00619006100915
00063Carol White         FIN       202401070050620505550000062user62@example.com       TX0007750YMANAGER        00013CC00629006200930
00064David Lee           OPS       202401080050630755550000063user63@example.com       FL0007875YCLERK          00014CC00639006300945
00065Eve Black           SALES     202401090050640005550000064user64@example.com       WA0008000YDIRECTOR       00015CC00649006400960
00066Frank Green         HR        202401100050650255550000065user65@example.com       CA0008125NANALYST        00016CC00659006500975
00067Grace Kim           IT        202401110050660505550000066user66@example.com       NY0008250YENGINEER       00017CC00669006600990
00068Henry Zhou          FIN       202401120050670755550000067user67@example.com       TX0008375YMANAGER        00018CC00679006701005
00069Ivy Patel           OPS       202401130050680005550000068user68@example.com       FL0008500YCLERK          00019CC00689006801020
00070Jack Brown          SALES     202401140050690255550000069user69@example.com       WA0008625YDIRECTOR       00020CC00699006901035
00071Alice Johnson       HR        202401150050700505550000070user70@example.com       CA0008750NANALYST        00021CC00709007001050
00072Bob Smith           IT        202401160050710755550000071user71@example.com       NY0008875YENGINEER       00022CC00719007101065
00073Carol White         FIN       202401170050720005550000072user72@example.com       TX0009000YMANAGER        00023CC00729007201080
00074David Lee           OPS       202401180050730255550000073user73@example.com       FL0009125YCLERK          00024CC00739007301095
00075Eve Black           SALES     202401190050740505550000074user74@example.com       WA0009250YDIRECTOR       00025CC00749007401110
00076Frank Green         HR        202401200050750755550000075user75@example.com       CA0009375NANALYST        00026CC00759007501125
00077Grace Kim           IT        202401210050760005550000076user76@example.com       NY0009500YENGINEER       00027CC00769007601140
00078Henry Zhou          FIN       202401220050770255550000077user77@example.com       TX0009625YMANAGER        00028CC00779007701155
00079Ivy Patel           OPS       202401230050780505550000078user78@example.com       FL0009750YCLERK          00029CC00789007801170
00080Jack Brown          SALES     202401240050790755550000079user79@example.com       WA0009875YDIRECTOR       00030CC00799007901185
00081Alice Johnson       HR        202401250050800005550000080user80@example.com       CA0010000NANALYST        00031CC00809008001200
00082Bob Smith           IT        202401260050810255550000081user81@example.com       NY0010125YENGINEER       00032CC00819008101215
00083Carol White         FIN       202401270050820505550000082user82@example.com       TX0010250YMANAGER        00033CC00829008201230
00084David Lee           OPS       202401280050830755550000083user83@example.com       FL0010375YCLERK          00034CC00839008301245
00085Eve Black           SALES     202401010050840005550000084user84@example.com       WA0010500YDIRECTOR       00035CC00849008401260
00086Frank Green         HR        202401020050850255550000085user85@example.com       CA0010625NANALYST        00036CC00859008501275
00087Grace Kim           IT        202401030050860505550000086user86@example.com       NY0010750YENGINEER       00037CC00869008601290
00088Henry Zhou          FIN       202401040050870755550000087user87@example.com       TX0010875YMANAGER        00038CC00879008701305
00089Ivy Patel           OPS       202401050050880005550000088user88@example.com       FL0011000YCLERK          00039CC00889008801320
00090Jack Brown          SALES     202401060050890255550000089user89@example.com       WA0011125YDIRECTOR       00040CC00899008901335
00091Alice Johnson       HR        202401070050900505550000090user90@example.com       CA0011250NANALYST        00041CC00909009001350
00092Bob Smith           IT        202401080050910755550000091user91@example.com       NY0011375YENGINEER       00042CC00919009101365
00093Carol White         FIN       202401090050920005550000092user92@example.com       TX0011500YMANAGER        00043CC00929009201380
00094David Lee           OPS       202401100050930255550000093user93@example.com       FL0011625YCLERK          00044CC00939009301395
00095Eve Black           SALES     202401110050940505550000094user94@example.com       WA0011750YDIRECTOR       00045CC00949009401410
00096Frank Green         HR        202401120050950755550000095user95@example.com       CA0011875NANALYST        00046CC00959009501425
00097Grace Kim           IT        202401130050960005550000096user96@example.com       NY0012000YENGINEER       00047CC00969009601440
00098Henry Zhou          FIN       202401140050970255550000097user97@example.com       TX0012125YMANAGER        00048CC00979009701455
00099Ivy Patel           OPS       202401150050980505550000098user98@example.com       FL0012250YCLERK          00049CC00989009801470
00100Jack Brown          SALES     202401160050990755550000099user99@example.com       WA0012375YDIRECTOR       00050CC00999009901485
00101Alice Johnson       HR        202401170051000005550000100user100@example.com      CA0012500NANALYST        00001CC01009010000000
00102Bob Smith           IT        202401180051010255550000101user101@example.com      NY0012625YENGINEER       00002CC01019010100015
00103Carol White         FIN       202401190051020505550000102user102@example.com      TX0012750YMANAGER        00003CC01029010200030
00104David Lee           OPS       202401200051030755550000103user103@example.com      FL0012875YCLERK          00004CC01039010300045
00105Eve Black           SALES     202401210051040005550000104user104@example.com      WA0013000YDIRECTOR       00005CC01049010400060
00106Frank Green         HR        202401220051050255550000105user105@example.com      CA0013125NANALYST        00006CC01059010500075
00107Grace Kim           IT        202401230051060505550000106user106@example.com      NY0013250YENGINEER       00007CC01069010600090
00108Henry Zhou          FIN       202401240051070755550000107user107@example.com      TX0013375YMANAGER        00008CC01079010700105
00109Ivy Patel           OPS       202401250051080005550000108user108@example.com      FL0013500YCLERK          00009CC01089010800120
00110Jack Brown          SALES     202401260051090255550000109user109@example.com      WA0013625YDIRECTOR       00010CC01099010900135
00111Alice Johnson       HR        202401270051100505550000110user110@example.com      CA0013750NANALYST        00011CC01109011000150
00112Bob Smith           IT        202401280051110755550000111user111@example.com      NY0013875YENGINEER       00012CC01119011100165
00113Carol White         FIN       202401010051120005550000112user112@example.com      TX0014000YMANAGER        00013CC01129011200180
00114David Lee           OPS       202401020051130255550000113user113@example.com      FL0014125YCLERK          00014CC01139011300195
00115Eve Black           SALES     202401030051140505550000114user114@example.com      WA0014250YDIRECTOR       00015CC01149011400210
00116Frank Green         HR        202401040051150755550000115user115@example.com      CA0014375NANALYST        00016CC01159011500225
00117Grace Kim           IT        202401050051160005550000116user116@example.com      NY0014500YENGINEER       00017CC01169011600240
00118Henry Zhou          FIN       202401060051170255550000117user117@example.com      TX0014625YMANAGER        00018CC01179011700255
00119Ivy Patel           OPS       202401070051180505550000118user118@example.com      FL0014750YCLERK          00019CC01189011800270
00120Jack Brown          SALES     202401080051190755550000119user119@example.com      WA0014875YDIRECTOR       00020CC01199011900285
00121Alice Johnson       HR        202401090051200005550000120user120@example.com      CA0015000NANALYST        00021CC01209012000300
00122Bob Smith           IT        202401100051210255550000121user121@example.com      NY0015125YENGINEER       00022CC01219012100315
00123Carol White         FIN       202401110051220505550000122user122@example.com      TX0015250YMANAGER        00023CC01229012200330
00124David Lee           OPS       202401120051230755550000123user123@example.com      FL0015375YCLERK          00024CC01239012300345
00125Eve Black           SALES     202401130051240005550000124user124@example.com      WA0015500YDIRECTOR       00025CC01249012400360
00126Frank Green         HR        202401140051250255550000125user125@example.com      CA0015625NANALYST        00026CC01259012500375
00127Grace Kim           IT        202401150051260505550000126user126@example.com      NY0015750YENGINEER       00027CC01269012600390
00128Henry Zhou          FIN       202401160051270755550000127user127@example.com      TX0015875YMANAGER        00028CC01279012700405
00129Ivy Patel           OPS       202401170051280005550000128user128@example.com      FL0016000YCLERK          00029CC01289012800420
00130Jack Brown          SALES     202401180051290255550000129user129@example.com      WA0016125YDIRECTOR       00030CC01299012900435
00131Alice Johnson       HR        202401190051300505550000130user130@example.com      CA0016250NANALYST        00031CC01309013000450
00132Bob Smith           IT        202401200051310755550000131user131@example.com      NY0016375YENGINEER       00032CC01319013100465
00133Carol White         FIN       202401210051320005550000132user132@example.com      TX0016500YMANAGER        00033CC01329013200480
00134David Lee           OPS       202401220051330255550000133user133@example.com      FL0016625YCLERK          00034CC01339013300495
00135Eve Black           SALES     202401230051340505550000134user134@example.com      WA0016750YDIRECTOR       00035CC01349013400510
00136Frank Green         HR        202401240051350755550000135user135@example.com      CA0016875NANALYST        00036CC01359013500525
00137Grace Kim           IT        202401250051360005550000136user136@example.com      NY0017000YENGINEER       00037CC01369013600540
00138Henry Zhou          FIN       202401260051370255550000137user137@example.com      TX0017125YMANAGER        00038CC01379013700555
00139Ivy Patel           OPS       202401270051380505550000138user138@example.com      FL0017250YCLERK          00039CC01389013800570
00140Jack Brown          SALES     202401280051390755550000139user139@example.com      WA0017375YDIRECTOR       00040CC01399013900585
00141Alice Johnson       HR        202401010051400005550000140user140@example.com      CA0017500NANALYST        00041CC01409014000600
00142Bob Smith           IT        202401020051410255550000141user141@example.com      NY0017625YENGINEER       00042CC01419014100615
00143Carol White         FIN       202401030051420505550000142user142@example.com      TX0017750YMANAGER        00043CC01429014200630
00144David Lee           OPS       202401040051430755550000143user143@example.com      FL0017875YCLERK          00044CC01439014300645
00145Eve Black           SALES     202401050051440005550000144user144@example.com      WA0018000YDIRECTOR       00045CC01449014400660
00146Frank Green         HR        202401060051450255550000145user145@example.com      CA0018125NANALYST        00046CC01459014500675
00147Grace Kim           IT        202401070051460505550000146user146@example.com      NY0018250YENGINEER       00047CC01469014600690
00148Henry Zhou          FIN       202401080051470755550000147user147@example.com      TX0018375YMANAGER        00048CC01479014700705
00149Ivy Patel           OPS       202401090051480005550000148user148@example.com      FL0018500YCLERK          00049CC01489014800720
00150Jack Brown          SALES     202401100051490255550000149user149@example.com      WA0018625YDIRECTOR       00050CC01499014900735
00151Alice Johnson       HR        202401110051500505550000150user150@example.com      CA0018750NANALYST        00001CC01509015000750
00152Bob Smith           IT        202401120051510755550000151user151@example.com      NY0018875YENGINEER       00002CC01519015100765
00153Carol White         FIN       202401130051520005550000152user152@example.com      TX0019000YMANAGER        00003CC01529015200780
00154David Lee           OPS       202401140051530255550000153user153@example.com      FL0019125YCLERK          00004CC01539015300795
00155Eve Black           SALES     202401150051540505550000154user154@example.com      WA0019250YDIRECTOR       00005CC01549015400810
00156Frank Green         HR        202401160051550755550000155user155@example.com      CA0019375NANALYST        00006CC01559015500825
00157Grace Kim           IT        202401170051560005550000156user156@example.com      NY0019500YENGINEER       00007CC01569015600840
00158Henry Zhou          FIN       202401180051570255550000157user157@example.com      TX0019625YMANAGER        00008CC01579015700855
00159Ivy Patel           OPS       202401190051580505550000158user158@example.com      FL0019750YCLERK          00009CC01589015800870
00160Jack Brown          SALES     202401200051590755550000159user159@example.com      WA0019875YDIRECTOR       00010CC01599015900885
00161Alice Johnson       HR        202401210051600005550000160user160@example.com      CA0020000NANALYST        00011CC01609016000900
00162Bob Smith           IT        202401220051610255550000161user161@example.com      NY0020125YENGINEER       00012CC01619016100915
00163Carol White         FIN       202401230051620505550000162user162@example.com      TX0020250YMANAGER        00013CC01629016200930
00164David Lee           OPS       202401240051630755550000163user163@example.com      FL0020375YCLERK          00014CC01639016300945
00165Eve Black           SALES     202401250051640005550000164user164@example.com      WA0020500YDIRECTOR       00015CC01649016400960
00166Frank Green         HR        202401260051650255550000165user165@example.com      CA0020625NANALYST        00016CC01659016500975
00167Grace Kim           IT        202401270051660505550000166user166@example.com      NY0020750YENGINEER       00017CC01669016600990
00168Henry Zhou          FIN       202401280051670755550000167user167@example.com      TX0020875YMANAGER        00018CC01679016701005
00169Ivy Patel           OPS       202401010051680005550000168user168@example.com      FL0021000YCLERK          00019CC01689016801020
00170Jack Brown          SALES     202401020051690255550000169user169@example.com      WA0021125YDIRECTOR       00020CC01699016901035
00171Alice Johnson       HR        202401030051700505550000170user170@example.com      CA0021250NANALYST        00021CC01709017001050
00172Bob Smith           IT        202401040051710755550000171user171@example.com      NY0021375YENGINEER       00022CC01719017101065
00173Carol White         FIN       202401050051720005550000172user172@example.com      TX0021500YMANAGER        00023CC01729017201080
00174David Lee           OPS       202401060051730255550000173user173@example.com      FL0021625YCLERK          00024CC01739017301095
00175Eve Black           SALES     202401070051740505550000174user174@example.com      WA0021750YDIRECTOR       00025CC01749017401110
00176Frank Green         HR        202401080051750755550000175user175@example.com      CA0021875NANALYST        00026CC01759017501125
00177Grace Kim           IT        202401090051760005550000176user176@example.com      NY0022000YENGINEER       00027CC01769017601140
00178Henry Zhou          FIN       202401100051770255550000177user177@example.com      TX0022125YMANAGER        00028CC01779017701155
00179Ivy Patel           OPS       202401110051780505550000178user178@example.com      FL0022250YCLERK          00029CC01789017801170
00180Jack Brown          SALES     202401120051790755550000179user179@example.com      WA0022375YDIRECTOR       00030CC01799017901185
00181Alice Johnson       HR        202401130051800005550000180user180@example.com      CA0022500NANALYST        00031CC01809018001200
00182Bob Smith           IT        202401140051810255550000181user181@example.com      NY0022625YENGINEER       00032CC01819018101215
00183Carol White         FIN       202401150051820505550000182user182@example.com      TX0022750YMANAGER        00033CC01829018201230
00184David Lee           OPS       202401160051830755550000183user183@example.com      FL0022875YCLERK          00034CC01839018301245
00185Eve Black           SALES     202401170051840005550000184user184@example.com      WA0023000YDIRECTOR       00035CC01849018401260
00186Frank Green         HR        202401180051850255550000185user185@example.com      CA0023125NANALYST        00036CC01859018501275
00187Grace Kim           IT        202401190051860505550000186user186@example.com      NY0023250YENGINEER       00037CC01869018601290
00188Henry Zhou          FIN       202401200051870755550000187user187@example.com      TX0023375YMANAGER        00038CC01879018701305
00189Ivy Patel           OPS       202401210051880005550000188user188@example.com      FL0023500YCLERK          00039CC01889018801320
00190Jack Brown          SALES     202401220051890255550000189user189@example.com      WA0023625YDIRECTOR       00040CC01899018901335
00191Alice Johnson       HR        202401230051900505550000190user190@example.com      CA0023750NANALYST        00041CC01909019001350
00192Bob Smith           IT        202401240051910755550000191user191@example.com      NY0023875YENGINEER       00042CC01919019101365
00193Carol White         FIN       202401250051920005550000192user192@example.com      TX0024000YMANAGER        00043CC01929019201380
00194David Lee           OPS       202401260051930255550000193user193@example.com      FL0024125YCLERK          00044CC01939019301395
00195Eve Black           SALES     202401270051940505550000194user194@example.com      WA0024250YDIRECTOR       00045CC01949019401410
00196Frank Green         HR        202401280051950755550000195user195@example.com      CA0024375NANALYST        00046CC01959019501425
00197Grace Kim           IT        202401010051960005550000196user196@example.com      NY0024500YENGINEER       00047CC01969019601440
00198Henry Zhou          FIN       202401020051970255550000197user197@example.com      TX0024625YMANAGER        00048CC01979019701455
00199Ivy Patel           OPS       202401030051980505550000198user198@example.com      FL0024750YCLERK          00049CC01989019801470
00200Jack Brown          SALES     202401040051990755550000199user199@example.com      WA0024875YDIRECTOR       00050CC01999019901485
00201Alice Johnson       HR        202401050052000005550000200user200@example.com      CA0000000NANALYST        00001CC02009020000000
00202Bob Smith           IT        202401060052010255550000201user201@example.com      NY0000125YENGINEER       00002CC02019020100015
00203Carol White         FIN       202401070052020505550000202user202@example.com      TX0000250YMANAGER        00003CC02029020200030
00204David Lee           OPS       202401080052030755550000203user203@example.com      FL0000375YCLERK          00004CC02039020300045
00205Eve Black           SALES     202401090052040005550000204user204@example.com      WA0000500YDIRECTOR       00005CC02049020400060
00206Frank Green         HR        202401100052050255550000205user205@example.com      CA0000625NANALYST        00006CC02059020500075
00207Grace Kim           IT        202401110052060505550000206user206@example.com      NY0000750YENGINEER       00007CC02069020600090
00208Henry Zhou          FIN       202401120052070755550000207user207@example.com      TX0000875YMANAGER        00008CC02079020700105
00209Ivy Patel           OPS       202401130052080005550000208user208@example.com      FL0001000YCLERK          00009CC02089020800120
00210Jack Brown          SALES     202401140052090255550000209user209@example.com      WA0001125YDIRECTOR       00010CC02099020900135
00211Alice Johnson       HR        202401150052100505550000210user210@example.com      CA0001250NANALYST        00011CC02109021000150
00212Bob Smith           IT        202401160052110755550000211user211@example.com      NY0001375YENGINEER       00012CC02119021100165
00213Carol White         FIN       202401170052120005550000212user212@example.com      TX0001500YMANAGER        00013CC02129021200180
00214David Lee           OPS       202401180052130255550000213user213@example.com      FL0001625YCLERK          00014CC02139021300195
00215Eve Black           SALES     202401190052140505550000214user214@example.com      WA0001750YDIRECTOR       00015CC02149021400210
00216Frank Green         HR        202401200052150755550000215user215@example.com      CA0001875NANALYST        00016CC02159021500225
00217Grace Kim           IT        202401210052160005550000216user216@example.com      NY0002000YENGINEER       00017CC02169021600240
00218Henry Zhou          FIN       202401220052170255550000217user217@example.com      TX0002125YMANAGER        00018CC02179021700255
00219Ivy Patel           OPS       202401230052180505550000218user218@example.com      FL0002250YCLERK          00019CC02189021800270
00220Jack Brown          SALES     202401240052190755550000219user219@example.com      WA0002375YDIRECTOR       00020CC02199021900285
00221Alice Johnson       HR        202401250052200005550000220user220@example.com      CA0002500NANALYST        00021CC02209022000300
00222Bob Smith           IT        202401260052210255550000221user221@example.com      NY0002625YENGINEER       00022CC02219022100315
00223Carol White         FIN       202401270052220505550000222user222@example.com      TX0002750YMANAGER        00023CC02229022200330
00224David Lee           OPS       202401280052230755550000223user223@example.com      FL0002875YCLERK          00024CC02239022300345
00225Eve Black           SALES     202401010052240005550000224user224@example.com      WA0003000YDIRECTOR       00025CC02249022400360
00226Frank Green         HR        202401020052250255550000225user225@example.com      CA0003125NANALYST        00026CC02259022500375
00227Grace Kim           IT        202401030052260505550000226user226@example.com      NY0003250YENGINEER       00027CC02269022600390
00228Henry Zhou          FIN       202401040052270755550000227user227@example.com      TX0003375YMANAGER        00028CC02279022700405
00229Ivy Patel           OPS       202401050052280005550000228user228@example.com      FL0003500YCLERK          00029CC02289022800420
00230Jack Brown          SALES     202401060052290255550000229user229@example.com      WA0003625YDIRECTOR       00030CC02299022900435
00231Alice Johnson       HR        202401070052300505550000230user230@example.com      CA0003750NANALYST        00031CC02309023000450
00232Bob Smith           IT        202401080052310755550000231user231@example.com      NY0003875YENGINEER       00032CC02319023100465
00233Carol White         FIN       202401090052320005550000232user232@example.com      TX0004000YMANAGER        00033CC02329023200480
00234David Lee           OPS       202401100052330255550000233user233@example.com      FL0004125YCLERK          00034CC02339023300495
00235Eve Black           SALES     202401110052340505550000234user234@example.com      WA0004250YDIRECTOR       00035CC02349023400510
00236Frank Green         HR        202401120052350755550000235user235@example.com      CA0004375NANALYST        00036CC02359023500525
00237Grace Kim           IT        202401130052360005550000236user236@example.com      NY0004500YENGINEER       00037CC02369023600540
00238Henry Zhou          FIN       202401140052370255550000237user237@example.com      TX0004625YMANAGER        00038CC02379023700555
00239Ivy Patel           OPS       202401150052380505550000238user238@example.com      FL0004750YCLERK          00039CC02389023800570
00240Jack Brown          SALES     202401160052390755550000239user239@example.com      WA0004875YDIRECTOR       00040CC02399023900585
00241Alice Johnson       HR        202401170052400005550000240user240@example.com      CA0005000NANALYST        00041CC02409024000600
00242Bob Smith           IT        202401180052410255550000241user241@example.com      NY0005125YENGINEER       00042CC02419024100615
00243Carol White         FIN       202401190052420505550000242user242@example.com      TX0005250YMANAGER        00043CC02429024200630
00244David Lee           OPS       202401200052430755550000243user243@example.com      FL0005375YCLERK          00044CC02439024300645
00245Eve Black           SALES     202401210052440005550000244user244@example.com      WA0005500YDIRECTOR       00045CC02449024400660
00246Frank Green         HR        202401220052450255550000245user245@example.com      CA0005625NANALYST        00046CC02459024500675
00247Grace Kim           IT        202401230052460505550000246user246@example.com      NY0005750YENGINEER       00047CC02469024600690
00248Henry Zhou          FIN       202401240052470755550000247user247@example.com      TX0005875YMANAGER        00048CC02479024700705
00249Ivy Patel           OPS       202401250052480005550000248user248@example.com      FL0006000YCLERK          00049CC02489024800720
00250Jack Brown          SALES     202401260052490255550000249user249@example.com      WA0006125YDIRECTOR       00050CC02499024900735
00251Alice Johnson       HR        202401270052500505550000250user250@example.com      CA0006250NANALYST        00001CC02509025000750
00252Bob Smith           IT        202401280052510755550000251user251@example.com      NY0006375YENGINEER       00002CC02519025100765
00253Carol White         FIN       202401010052520005550000252user252@example.com      TX0006500YMANAGER        00003CC02529025200780
00254David Lee           OPS       202401020052530255550000253user253@example.com      FL0006625YCLERK          00004CC02539025300795
00255Eve Black           SALES     202401030052540505550000254user254@example.com      WA0006750YDIRECTOR       00005CC02549025400810
00256Frank Green         HR        202401040052550755550000255user255@example.com      CA0006875NANALYST        00006CC02559025500825
00257Grace Kim           IT        202401050052560005550000256user256@example.com      NY0007000YENGINEER       00007CC02569025600840
00258Henry Zhou          FIN       202401060052570255550000257user257@example.com      TX0007125YMANAGER        00008CC02579025700855
00259Ivy Patel           OPS       202401070052580505550000258user258@example.com      FL0007250YCLERK          00009CC02589025800870
00260Jack Brown          SALES     202401080052590755550000259user259@example.com      WA0007375YDIRECTOR       00010CC02599025900885
00261Alice Johnson       HR        202401090052600005550000260user260@example.com      CA0007500NANALYST        00011CC02609026000900
00262Bob Smith           IT        202401100052610255550000261user261@example.com      NY0007625YENGINEER       00012CC02619026100915
00263Carol White         FIN       202401110052620505550000262user262@example.com      TX0007750YMANAGER        00013CC02629026200930
00264David Lee           OPS       202401120052630755550000263user263@example.com      FL0007875YCLERK          00014CC02639026300945
00265Eve Black           SALES     202401130052640005550000264user264@example.com      WA0008000YDIRECTOR       00015CC02649026400960
00266Frank Green         HR        202401140052650255550000265user265@example.com      CA0008125NANALYST        00016CC02659026500975
00267Grace Kim           IT        202401150052660505550000266user266@example.com      NY0008250YENGINEER       00017CC02669026600990
00268Henry Zhou          FIN       202401160052670755550000267user267@example.com      TX0008375YMANAGER        00018CC02679026701005
00269Ivy Patel           OPS       202401170052680005550000268user268@example.com      FL0008500YCLERK          00019CC02689026801020
00270Jack Brown          SALES     202401180052690255550000269user269@example.com      WA0008625YDIRECTOR       00020CC02699026901035
00271Alice Johnson       HR        202401190052700505550000270user270@example.com      CA0008750NANALYST        00021CC02709027001050
00272Bob Smith           IT        202401200052710755550000271user271@example.com      NY0008875YENGINEER       00022CC02719027101065
00273Carol White         FIN       202401210052720005550000272user272@example.com      TX0009000YMANAGER        00023CC02729027201080
00274David Lee           OPS       202401220052730255550000273user273@example.com      FL0009125YCLERK          00024CC02739027301095
00275Eve Black           SALES     202401230052740505550000274user274@example.com      WA0009250YDIRECTOR       00025CC02749027401110
00276Frank Green         HR        202401240052750755550000275user275@example.com      CA0009375NANALYST        00026CC02759027501125
00277Grace Kim           IT        202401250052760005550000276user276@example.com      NY0009500YENGINEER       00027CC02769027601140
00278Henry Zhou          FIN       202401260052770255550000277user277@example.com      TX0009625YMANAGER        00028CC02779027701155
00279Ivy Patel           OPS       202401270052780505550000278user278@example.com      FL0009750YCLERK          00029CC02789027801170
00280Jack Brown          SALES     202401280052790755550000279user279@example.com      WA0009875YDIRECTOR       00030CC02799027901185
00281Alice Johnson       HR        202401010052800005550000280user280@example.com      CA0010000NANALYST        00031CC02809028001200
00282Bob Smith           IT        202401020052810255550000281user281@example.com      NY0010125YENGINEER       00032CC02819028101215
00283Carol White         FIN       202401030052820505550000282user282@example.com      TX0010250YMANAGER        00033CC02829028201230
00284David Lee           OPS       202401040052830755550000283user283@example.com      FL0010375YCLERK          00034CC02839028301245
00285Eve Black           SALES     202401050052840005550000284user284@example.com      WA0010500YDIRECTOR       00035CC02849028401260
00286Frank Green         HR        202401060052850255550000285user285@example.com      CA0010625NANALYST        00036CC02859028501275
00287Grace Kim           IT        202401070052860505550000286user286@example.com      NY0010750YENGINEER       00037CC02869028601290
00288Henry Zhou          FIN       202401080052870755550000287user287@example.com      TX0010875YMANAGER        00038CC02879028701305
00289Ivy Patel           OPS       202401090052880005550000288user288@example.com      FL0011000YCLERK          00039CC02889028801320
00290Jack Brown          SALES     202401100052890255550000289user289@example.com      WA0011125YDIRECTOR       00040CC02899028901335
00291Alice Johnson       HR        202401110052900505550000290user290@example.com      CA0011250NANALYST        00041CC02909029001350
00292Bob Smith           IT        202401120052910755550000291user291@example.com      NY0011375YENGINEER       00042CC02919029101365
00293Carol White         FIN       202401130052920005550000292user292@example.com      TX0011500YMANAGER        00043CC02929029201380
00294David Lee           OPS       202401140052930255550000293user293@example.com      FL0011625YCLERK          00044CC02939029301395
00295Eve Black           SALES     202401150052940505550000294user294@example.com      WA0011750YDIRECTOR       00045CC02949029401410
00296Frank Green         HR        202401160052950755550000295user295@example.com      CA0011875NANALYST        00046CC02959029501425
00297Grace Kim           IT        202401170052960005550000296user296@example.com      NY0012000YENGINEER       00047CC02969029601440
00298Henry Zhou          FIN       202401180052970255550000297user297@example.com      TX0012125YMANAGER        00048CC02979029701455
00299Ivy Patel           OPS       202401190052980505550000298user298@example.com      FL0012250YCLERK          00049CC02989029801470
00300Jack Brown          SALES     202401200052990755550000299user299@example.com      WA0012375YDIRECTOR       00050CC02999029901485
00301Alice Johnson       HR        202401210053000005550000300user300@example.com      CA0012500NANALYST        00001CC03009030000000
00302Bob Smith           IT        202401220053010255550000301user301@example.com      NY0012625YENGINEER       00002CC03019030100015
00303Carol White         FIN       202401230053020505550000302user302@example.com      TX0012750YMANAGER        00003CC03029030200030
00304David Lee           OPS       202401240053030755550000303user303@example.com      FL0012875YCLERK          00004CC03039030300045
00305Eve Black           SALES     202401250053040005550000304user304@example.com      WA0013000YDIRECTOR       00005CC03049030400060
00306Frank Green         HR        202401260053050255550000305user305@example.com      CA0013125NANALYST        00006CC03059030500075
00307Grace Kim           IT        202401270053060505550000306user306@example.com      NY0013250YENGINEER       00007CC03069030600090
00308Henry Zhou          FIN       202401280053070755550000307user307@example.com      TX0013375YMANAGER        00008CC03079030700105
00309Ivy Patel           OPS       202401010053080005550000308user308@example.com      FL0013500YCLERK          00009CC03089030800120
00310Jack Brown          SALES     202401020053090255550000309user309@example.com      WA0013625YDIRECTOR       00010CC03099030900135
00311Alice Johnson       HR        202401030053100505550000310user310@example.com      CA0013750NANALYST        00011CC03109031000150
00312Bob Smith           IT        202401040053110755550000311user311@example.com      NY0013875YENGINEER       00012CC03119031100165
00313Carol White         FIN       202401050053120005550000312user312@example.com      TX0014000YMANAGER        00013CC03129031200180
00314David Lee           OPS       202401060053130255550000313user313@example.com      FL0014125YCLERK          00014CC03139031300195
00315Eve Black           SALES     202401070053140505550000314user314@example.com      WA0014250YDIRECTOR       00015CC03149031400210
00316Frank Green         HR        202401080053150755550000315user315@example.com      CA0014375NANALYST        00016CC03159031500225
00317Grace Kim           IT        202401090053160005550000316user316@example.com      NY0014500YENGINEER       00017CC03169031600240
00318Henry Zhou          FIN       202401100053170255550000317user317@example.com      TX0014625YMANAGER        00018CC03179031700255
00319Ivy Patel           OPS       202401110053180505550000318user318@example.com      FL0014750YCLERK          00019CC03189031800270
00320Jack Brown          SALES     202401120053190755550000319user319@example.com      WA0014875YDIRECTOR       00020CC03199031900285
00321Alice Johnson       HR        202401130053200005550000320user320@example.com      CA0015000NANALYST        00021CC03209032000300
00322Bob Smith           IT        202401140053210255550000321user321@example.com      NY0015125YENGINEER       00022CC03219032100315
00323Carol White         FIN       202401150053220505550000322user322@example.com      TX0015250YMANAGER        00023CC03229032200330
00324David Lee           OPS       202401160053230755550000323user323@example.com      FL0015375YCLERK          00024CC03239032300345
00325Eve Black           SALES     202401170053240005550000324user324@example.com      WA0015500YDIRECTOR       00025CC03249032400360
00326Frank Green         HR        202401180053250255550000325user325@example.com      CA0015625NANALYST        00026CC03259032500375
00327Grace Kim           IT        202401190053260505550000326user326@example.com      NY0015750YENGINEER       00027CC03269032600390
00328Henry Zhou          FIN       202401200053270755550000327user327@example.com      TX0015875YMANAGER        00028CC03279032700405
00329Ivy Patel           OPS       202401210053280005550000328user328@example.com      FL0016000YCLERK          00029CC03289032800420
00330Jack Brown          SALES     202401220053290255550000329user329@example.com      WA0016125YDIRECTOR       00030CC03299032900435
00331Alice Johnson       HR        202401230053300505550000330user330@example.com      CA0016250NANALYST        00031CC03309033000450
00332Bob Smith           IT        202401240053310755550000331user331@example.com      NY0016375YENGINEER       00032CC03319033100465
00333Carol White         FIN       202401250053320005550000332user332@example.com      TX0016500YMANAGER        00033CC03329033200480
00334David Lee           OPS       202401260053330255550000333user333@example.com      FL0016625YCLERK          00034CC03339033300495
00335Eve Black           SALES     202401270053340505550000334user334@example.com      WA0016750YDIRECTOR       00035CC03349033400510
00336Frank Green         HR        202401280053350755550000335user335@example.com      CA0016875NANALYST        00036CC03359033500525
00337Grace Kim           IT        202401010053360005550000336user336@example.com      NY0017000YENGINEER       00037CC03369033600540
00338Henry Zhou          FIN       202401020053370255550000337user337@example.com      TX0017125YMANAGER        00038CC03379033700555
00339Ivy Patel           OPS       202401030053380505550000338user338@example.com      FL0017250YCLERK          00039CC03389033800570
00340Jack Brown          SALES     202401040053390755550000339user339@example.com      WA0017375YDIRECTOR       00040CC03399033900585
00341Alice Johnson       HR        202401050053400005550000340user340@example.com      CA0017500NANALYST        00041CC03409034000600
00342Bob Smith           IT        202401060053410255550000341user341@example.com      NY0017625YENGINEER       00042CC03419034100615
00343Carol White         FIN       202401070053420505550000342user342@example.com      TX0017750YMANAGER        00043CC03429034200630
00344David Lee           OPS       202401080053430755550000343user343@example.com      FL0017875YCLERK          00044CC03439034300645
00345Eve Black           SALES     202401090053440005550000344user344@example.com      WA0018000YDIRECTOR       00045CC03449034400660
00346Frank Green         HR        202401100053450255550000345user345@example.com      CA0018125NANALYST        00046CC03459034500675
00347Grace Kim           IT        202401110053460505550000346user346@example.com      NY0018250YENGINEER       00047CC03469034600690
00348Henry Zhou          FIN       202401120053470755550000347user347@example.com      TX0018375YMANAGER        00048CC03479034700705
00349Ivy Patel           OPS       202401130053480005550000348user348@example.com      FL0018500YCLERK          00049CC03489034800720
00350Jack Brown          SALES     202401140053490255550000349user349@example.com      WA0018625YDIRECTOR       00050CC03499034900735
00351Alice Johnson       HR        202401150053500505550000350user350@example.com      CA0018750NANALYST        00001CC03509035000750
00352Bob Smith           IT        202401160053510755550000351user351@example.com      NY0018875YENGINEER       00002CC03519035100765
00353Carol White         FIN       202401170053520005550000352user352@example.com      TX0019000YMANAGER        00003CC03529035200780
00354David Lee           OPS       202401180053530255550000353user353@example.com      FL0019125YCLERK          00004CC03539035300795
00355Eve Black           SALES     202401190053540505550000354user354@example.com      WA0019250YDIRECTOR       00005CC03549035400810
00356Frank Green         HR        202401200053550755550000355user355@example.com      CA0019375NANALYST        00006CC03559035500825
00357Grace Kim           IT        202401210053560005550000356user356@example.com      NY0019500YENGINEER       00007CC03569035600840
00358Henry Zhou          FIN       202401220053570255550000357user357@example.com      TX0019625YMANAGER        00008CC03579035700855
00359Ivy Patel           OPS       202401230053580505550000358user358@example.com      FL0019750YCLERK          00009CC03589035800870
00360Jack Brown          SALES     202401240053590755550000359user359@example.com      WA0019875YDIRECTOR       00010CC03599035900885
00361Alice Johnson       HR        202401250053600005550000360user360@example.com      CA0020000NANALYST        00011CC03609036000900
00362Bob Smith           IT        202401260053610255550000361user361@example.com      NY0020125YENGINEER       00012CC03619036100915
00363Carol White         FIN       202401270053620505550000362user362@example.com      TX0020250YMANAGER        00013CC03629036200930
00364David Lee           OPS       202401280053630755550000363user363@example.com      FL0020375YCLERK          00014CC03639036300945
00365Eve Black           SALES     202401010053640005550000364user364@example.com      WA0020500YDIRECTOR       00015CC03649036400960
00366Frank Green         HR        202401020053650255550000365user365@example.com      CA0020625NANALYST        00016CC03659036500975
00367Grace Kim           IT        202401030053660505550000366user366@example.com      NY0020750YENGINEER       00017CC03669036600990
00368Henry Zhou          FIN       202401040053670755550000367user367@example.com      TX0020875YMANAGER        00018CC03679036701005
00369Ivy Patel           OPS       202401050053680005550000368user368@example.com      FL0021000YCLERK          00019CC03689036801020
00370Jack Brown          SALES     202401060053690255550000369user369@example.com      WA0021125YDIRECTOR       00020CC03699036901035
00371Alice Johnson       HR        202401070053700505550000370user370@example.com      CA0021250NANALYST        00021CC03709037001050
00372Bob Smith           IT        202401080053710755550000371user371@example.com      NY0021375YENGINEER       00022CC03719037101065
00373Carol White         FIN       202401090053720005550000372user372@example.com      TX0021500YMANAGER        00023CC03729037201080
00374David Lee           OPS       202401100053730255550000373user373@example.com      FL0021625YCLERK          00024CC03739037301095
00375Eve Black           SALES     202401110053740505550000374user374@example.com      WA0021750YDIRECTOR       00025CC03749037401110
00376Frank Green         HR        202401120053750755550000375user375@example.com      CA0021875NANALYST        00026CC03759037501125
00377Grace Kim           IT        202401130053760005550000376user376@example.com      NY0022000YENGINEER       00027CC03769037601140
00378Henry Zhou          FIN       202401140053770255550000377user377@example.com      TX0022125YMANAGER        00028CC03779037701155
00379Ivy Patel           OPS       202401150053780505550000378user378@example.com      FL0022250YCLERK          00029CC03789037801170
00380Jack Brown          SALES     202401160053790755550000379user379@example.com      WA0022375YDIRECTOR       00030CC03799037901185
00381Alice Johnson       HR        202401170053800005550000380user380@example.com      CA0022500NANALYST        00031CC03809038001200
00382Bob Smith           IT        202401180053810255550000381user381@example.com      NY0022625YENGINEER       00032CC03819038101215
00383Carol White         FIN       202401190053820505550000382user382@example.com      TX0022750YMANAGER        00033CC03829038201230
00384David Lee           OPS       202401200053830755550000383user383@example.com      FL0022875YCLERK          00034CC03839038301245
00385Eve Black           SALES     202401210053840005550000384user384@example.com      WA0023000YDIRECTOR       00035CC03849038401260
00386Frank Green         HR        202401220053850255550000385user385@example.com      CA0023125NANALYST        00036CC03859038501275
00387Grace Kim           IT        202401230053860505550000386user386@example.com      NY0023250YENGINEER       00037CC03869038601290
00388Henry Zhou          FIN       202401240053870755550000387user387@example.com      TX0023375YMANAGER        00038CC03879038701305
00389Ivy Patel           OPS       202401250053880005550000388user388@example.com      FL0023500YCLERK          00039CC03889038801320
00390Jack Brown          SALES     202401260053890255550000389user389@example.com      WA0023625YDIRECTOR       00040CC03899038901335
00391Alice Johnson       HR        202401270053900505550000390user390@example.com      CA0023750NANALYST        00041CC03909039001350
00392Bob Smith           IT        202401280053910755550000391user391@example.com      NY0023875YENGINEER       00042CC03919039101365
00393Carol White         FIN       202401010053920005550000392user392@example.com      TX0024000YMANAGER        00043CC03929039201380
00394David Lee           OPS       202401020053930255550000393user393@example.com      FL0024125YCLERK          00044CC03939039301395
00395Eve Black           SALES     202401030053940505550000394user394@example.com      WA0024250YDIRECTOR       00045CC03949039401410
00396Frank Green         HR        202401040053950755550000395user395@example.com      CA0024375NANALYST        00046CC03959039501425
00397Grace Kim           IT        202401050053960005550000396user396@example.com      NY0024500YENGINEER       00047CC03969039601440
00398Henry Zhou          FIN       202401060053970255550000397user397@example.com      TX0024625YMANAGER        00048CC03979039701455
00399Ivy Patel           OPS       202401070053980505550000398user398@example.com      FL0024750YCLERK          00049CC03989039801470
00400Jack Brown          SALES     202401080053990755550000399user399@example.com      WA0024875YDIRECTOR       00050CC03999039901485
00401Alice Johnson       HR        202401090054000005550000400user400@example.com      CA0000000NANALYST        00001CC04009040000000
00402Bob Smith           IT        202401100054010255550000401user401@example.com      NY0000125YENGINEER       00002CC04019040100015
00403Carol White         FIN       202401110054020505550000402user402@example.com      TX0000250YMANAGER        00003CC04029040200030
00404David Lee           OPS       202401120054030755550000403user403@example.com      FL0000375YCLERK          00004CC04039040300045
00405Eve Black           SALES     202401130054040005550000404user404@example.com      WA0000500YDIRECTOR       00005CC04049040400060
00406Frank Green         HR        202401140054050255550000405user405@example.com      CA0000625NANALYST        00006CC04059040500075
00407Grace Kim           IT        202401150054060505550000406user406@example.com      NY0000750YENGINEER       00007CC04069040600090
00408Henry Zhou          FIN       202401160054070755550000407user407@example.com      TX0000875YMANAGER        00008CC04079040700105
00409Ivy Patel           OPS       202401170054080005550000408user408@example.com      FL0001000YCLERK          00009CC04089040800120
00410Jack Brown          SALES     202401180054090255550000409user409@example.com      WA0001125YDIRECTOR       00010CC04099040900135
00411Alice Johnson       HR        202401190054100505550000410user410@example.com      CA0001250NANALYST        00011CC04109041000150
00412Bob Smith           IT        202401200054110755550000411user411@example.com      NY0001375YENGINEER       00012CC04119041100165
00413Carol White         FIN       202401210054120005550000412user412@example.com      TX0001500YMANAGER        00013CC04129041200180
00414David Lee           OPS       202401220054130255550000413user413@example.com      FL0001625YCLERK          00014CC04139041300195
00415Eve Black           SALES     202401230054140505550000414user414@example.com      WA0001750YDIRECTOR       00015CC04149041400210
00416Frank Green         HR        202401240054150755550000415user415@example.com      CA0001875NANALYST        00016CC04159041500225
00417Grace Kim           IT        202401250054160005550000416user416@example.com      NY0002000YENGINEER       00017CC04169041600240
00418Henry Zhou          FIN       202401260054170255550000417user417@example.com      TX0002125YMANAGER        00018CC04179041700255
00419Ivy Patel           OPS       202401270054180505550000418user418@example.com      FL0002250YCLERK          00019CC04189041800270
00420Jack Brown          SALES     202401280054190755550000419user419@example.com      WA0002375YDIRECTOR       00020CC04199041900285
00421Alice Johnson       HR        202401010054200005550000420user420@example.com      CA0002500NANALYST        00021CC04209042000300
00422Bob Smith           IT        202401020054210255550000421user421@example.com      NY0002625YENGINEER       00022CC04219042100315
00423Carol White         FIN       202401030054220505550000422user422@example.com      TX0002750YMANAGER        00023CC04229042200330
00424David Lee           OPS       202401040054230755550000423user423@example.com      FL0002875YCLERK          00024CC04239042300345
00425Eve Black           SALES     202401050054240005550000424user424@example.com      WA0003000YDIRECTOR       00025CC04249042400360
00426Frank Green         HR        202401060054250255550000425user425@example.com      CA0003125NANALYST        00026CC04259042500375
00427Grace Kim           IT        202401070054260505550000426user426@example.com      NY0003250YENGINEER       00027CC04269042600390
00428Henry Zhou          FIN       202401080054270755550000427user427@example.com      TX0003375YMANAGER        00028CC04279042700405
00429Ivy Patel           OPS       202401090054280005550000428user428@example.com      FL0003500YCLERK          00029CC04289042800420
00430Jack Brown          SALES     202401100054290255550000429user429@example.com      WA0003625YDIRECTOR       00030CC04299042900435
00431Alice Johnson       HR        202401110054300505550000430user430@example.com      CA0003750NANALYST        00031CC04309043000450
00432Bob Smith           IT        202401120054310755550000431user431@example.com      NY0003875YENGINEER       00032CC04319043100465
00433Carol White         FIN       202401130054320005550000432user432@example.com      TX0004000YMANAGER        00033CC04329043200480
00434David Lee           OPS       202401140054330255550000433user433@example.com      FL0004125YCLERK          00034CC04339043300495
00435Eve Black           SALES     202401150054340505550000434user434@example.com      WA0004250YDIRECTOR       00035CC04349043400510
00436Frank Green         HR        202401160054350755550000435user435@example.com      CA0004375NANALYST        00036CC04359043500525
00437Grace Kim           IT        202401170054360005550000436user436@example.com      NY0004500YENGINEER       00037CC04369043600540
00438Henry Zhou          FIN       202401180054370255550000437user437@example.com      TX0004625YMANAGER        00038CC04379043700555
00439Ivy Patel           OPS       202401190054380505550000438user438@example.com      FL0004750YCLERK          00039CC04389043800570
00440Jack Brown          SALES     202401200054390755550000439user439@example.com      WA0004875YDIRECTOR       00040CC04399043900585
00441Alice Johnson       HR        202401210054400005550000440user440@example.com      CA0005000NANALYST        00041CC04409044000600
00442Bob Smith           IT        202401220054410255550000441user441@example.com      NY0005125YENGINEER       00042CC04419044100615
00443Carol White         FIN       202401230054420505550000442user442@example.com      TX0005250YMANAGER        00043CC04429044200630
00444David Lee           OPS       202401240054430755550000443user443@example.com      FL0005375YCLERK          00044CC04439044300645
00445Eve Black           SALES     202401250054440005550000444user444@example.com      WA0005500YDIRECTOR       00045CC04449044400660
00446Frank Green         HR        202401260054450255550000445user445@example.com      CA0005625NANALYST        00046CC04459044500675
00447Grace Kim           IT        202401270054460505550000446user446@example.com      NY0005750YENGINEER       00047CC04469044600690
00448Henry Zhou          FIN       202401280054470755550000447user447@example.com      TX0005875YMANAGER        00048CC04479044700705
00449Ivy Patel           OPS       202401010054480005550000448user448@example.com      FL0006000YCLERK          00049CC04489044800720
00450Jack Brown          SALES     202401020054490255550000449user449@example.com      WA0006125YDIRECTOR       00050CC04499044900735
00451Alice Johnson       HR        202401030054500505550000450user450@example.com      CA0006250NANALYST        00001CC04509045000750
00452Bob Smith           IT        202401040054510755550000451user451@example.com      NY0006375YENGINEER       00002CC04519045100765
00453Carol White         FIN       202401050054520005550000452user452@example.com      TX0006500YMANAGER        00003CC04529045200780
00454David Lee           OPS       202401060054530255550000453user453@example.com      FL0006625YCLERK          00004CC04539045300795
00455Eve Black           SALES     202401070054540505550000454user454@example.com      WA0006750YDIRECTOR       00005CC04549045400810
00456Frank Green         HR        202401080054550755550000455user455@example.com      CA0006875NANALYST        00006CC04559045500825
00457Grace Kim           IT        202401090054560005550000456user456@example.com      NY0007000YENGINEER       00007CC04569045600840
00458Henry Zhou          FIN       202401100054570255550000457user457@example.com      TX0007125YMANAGER        00008CC04579045700855
00459Ivy Patel           OPS       202401110054580505550000458user458@example.com      FL0007250YCLERK          00009CC04589045800870
00460Jack Brown          SALES     202401120054590755550000459user459@example.com      WA0007375YDIRECTOR       00010CC04599045900885
00461Alice Johnson       HR        202401130054600005550000460user460@example.com      CA0007500NANALYST        00011CC04609046000900
00462Bob Smith           IT        202401140054610255550000461user461@example.com      NY0007625YENGINEER       00012CC04619046100915
00463Carol White         FIN       202401150054620505550000462user462@example.com      TX0007750YMANAGER        00013CC04629046200930
00464David Lee           OPS       202401160054630755550000463user463@example.com      FL0007875YCLERK          00014CC04639046300945
00465Eve Black           SALES     202401170054640005550000464user464@example.com      WA0008000YDIRECTOR       00015CC04649046400960
00466Frank Green         HR        202401180054650255550000465user465@example.com      CA0008125NANALYST        00016CC04659046500975
00467Grace Kim           IT        202401190054660505550000466user466@example.com      NY0008250YENGINEER       00017CC04669046600990
00468Henry Zhou          FIN       202401200054670755550000467user467@example.com      TX0008375YMANAGER        00018CC04679046701005
00469Ivy Patel           OPS       202401210054680005550000468user468@example.com      FL0008500YCLERK          00019CC04689046801020
00470Jack Brown          SALES     202401220054690255550000469user469@example.com      WA0008625YDIRECTOR       00020CC04699046901035
00471Alice Johnson       HR        202401230054700505550000470user470@example.com      CA0008750NANALYST        00021CC04709047001050
00472Bob Smith           IT        202401240054710755550000471user471@example.com      NY0008875YENGINEER       00022CC04719047101065
00473Carol White         FIN       202401250054720005550000472user472@example.com      TX0009000YMANAGER        00023CC04729047201080
00474David Lee           OPS       202401260054730255550000473user473@example.com      FL0009125YCLERK          00024CC04739047301095
00475Eve Black           SALES     202401270054740505550000474user474@example.com      WA0009250YDIRECTOR       00025CC04749047401110
00476Frank Green         HR        202401280054750755550000475user475@example.com      CA0009375NANALYST        00026CC04759047501125
00477Grace Kim           IT        202401010054760005550000476user476@example.com      NY0009500YENGINEER       00027CC04769047601140
00478Henry Zhou          FIN       202401020054770255550000477user477@example.com      TX0009625YMANAGER        00028CC04779047701155
00479Ivy Patel           OPS       202401030054780505550000478user478@example.com      FL0009750YCLERK          00029CC04789047801170
00480Jack Brown          SALES     202401040054790755550000479user479@example.com      WA0009875YDIRECTOR       00030CC04799047901185
00481Alice Johnson       HR        202401050054800005550000480user480@example.com      CA0010000NANALYST        00031CC04809048001200
00482Bob Smith           IT        202401060054810255550000481user481@example.com      NY0010125YENGINEER       00032CC04819048101215
00483Carol White         FIN       202401070054820505550000482user482@example.com      TX0010250YMANAGER        00033CC04829048201230
00484David Lee           OPS       202401080054830755550000483user483@example.com      FL0010375YCLERK          00034CC04839048301245
00485Eve Black           SALES     202401090054840005550000484user484@example.com      WA0010500YDIRECTOR       00035CC04849048401260
00486Frank Green         HR        202401100054850255550000485user485@example.com      CA0010625NANALYST        00036CC04859048501275
00487Grace Kim           IT        202401110054860505550000486user486@example.com      NY0010750YENGINEER       00037CC04869048601290
00488Henry Zhou          FIN       202401120054870755550000487user487@example.com      TX0010875YMANAGER        00038CC04879048701305
00489Ivy Patel           OPS       202401130054880005550000488user488@example.com      FL0011000YCLERK          00039CC04889048801320
00490Jack Brown          SALES     202401140054890255550000489user489@example.com      WA0011125YDIRECTOR       00040CC04899048901335
00491Alice Johnson       HR        202401150054900505550000490user490@example.com      CA0011250NANALYST        00041CC04909049001350
00492Bob Smith           IT        202401160054910755550000491user491@example.com      NY0011375YENGINEER       00042CC04919049101365
00493Carol White         FIN       202401170054920005550000492user492@example.com      TX0011500YMANAGER        00043CC04929049201380
00494David Lee           OPS       202401180054930255550000493user493@example.com      FL0011625YCLERK          00044CC04939049301395
00495Eve Black           SALES     202401190054940505550000494user494@example.com      WA0011750YDIRECTOR       00045CC04949049401410
00496Frank Green         HR        202401200054950755550000495user495@example.com      CA0011875NANALYST        00046CC04959049501425
00497Grace Kim           IT        202401210054960005550000496user496@example.com      NY0012000YENGINEER       00047CC04969049601440
00498Henry Zhou          FIN       202401220054970255550000497user497@example.com      TX0012125YMANAGER        00048CC04979049701455
00499Ivy Patel           OPS       202401230054980505550000498user498@example.com      FL0012250YCLERK          00049CC04989049801470
00500Jack Brown          SALES     202401240054990755550000499user499@example.com      WA0012375YDIRECTOR       00050CC04999049901485
00501Alice Johnson       HR        202401250050000005550000500user500@example.com      CA0012500NANALYST        00001CC05009050000000
00502Bob Smith           IT        202401260050010255550000501user501@example.com      NY0012625YENGINEER       00002CC05019050100015
00503Carol White         FIN       202401270050020505550000502user502@example.com      TX0012750YMANAGER        00003CC05029050200030
00504David Lee           OPS       202401280050030755550000503user503@example.com      FL0012875YCLERK          00004CC05039050300045
00505Eve Black           SALES     202401010050040005550000504user504@example.com      WA0013000YDIRECTOR       00005CC05049050400060
00506Frank Green         HR        202401020050050255550000505user505@example.com      CA0013125NANALYST        00006CC05059050500075
00507Grace Kim           IT        202401030050060505550000506user506@example.com      NY0013250YENGINEER       00007CC05069050600090
00508Henry Zhou          FIN       202401040050070755550000507user507@example.com      TX0013375YMANAGER        00008CC05079050700105
00509Ivy Patel           OPS       202401050050080005550000508user508@example.com      FL0013500YCLERK          00009CC05089050800120
00510Jack Brown          SALES     202401060050090255550000509user509@example.com      WA0013625YDIRECTOR       00010CC05099050900135
00511Alice Johnson       HR        202401070050100505550000510user510@example.com      CA0013750NANALYST        00011CC05109051000150
00512Bob Smith           IT        202401080050110755550000511user511@example.com      NY0013875YENGINEER       00012CC05119051100165
00513Carol White         FIN       202401090050120005550000512user512@example.com      TX0014000YMANAGER        00013CC05129051200180
00514David Lee           OPS       202401100050130255550000513user513@example.com      FL0014125YCLERK          00014CC05139051300195
00515Eve Black           SALES     202401110050140505550000514user514@example.com      WA0014250YDIRECTOR       00015CC05149051400210
00516Frank Green         HR        202401120050150755550000515user515@example.com      CA0014375NANALYST        00016CC05159051500225
00517Grace Kim           IT        202401130050160005550000516user516@example.com      NY0014500YENGINEER       00017CC05169051600240
00518Henry Zhou          FIN       202401140050170255550000517user517@example.com      TX0014625YMANAGER        00018CC05179051700255
00519Ivy Patel           OPS       202401150050180505550000518user518@example.com      FL0014750YCLERK          00019CC05189051800270
00520Jack Brown          SALES     202401160050190755550000519user519@example.com      WA0014875YDIRECTOR       00020CC05199051900285
00521Alice Johnson       HR        202401170050200005550000520user520@example.com      CA0015000NANALYST        00021CC05209052000300
00522Bob Smith           IT        202401180050210255550000521user521@example.com      NY0015125YENGINEER       00022CC05219052100315
00523Carol White         FIN       202401190050220505550000522user522@example.com      TX0015250YMANAGER        00023CC05229052200330
00524David Lee           OPS       202401200050230755550000523user523@example.com      FL0015375YCLERK          00024CC05239052300345
00525Eve Black           SALES     202401210050240005550000524user524@example.com      WA0015500YDIRECTOR       00025CC05249052400360
00526Frank Green         HR        202401220050250255550000525user525@example.com      CA0015625NANALYST        00026CC05259052500375
00527Grace Kim           IT        202401230050260505550000526user526@example.com      NY0015750YENGINEER       00027CC05269052600390
00528Henry Zhou          FIN       202401240050270755550000527user527@example.com      TX0015875YMANAGER        00028CC05279052700405
00529Ivy Patel           OPS       202401250050280005550000528user528@example.com      FL0016000YCLERK          00029CC05289052800420
00530Jack Brown          SALES     202401260050290255550000529user529@example.com      WA0016125YDIRECTOR       00030CC05299052900435
00531Alice Johnson       HR        202401270050300505550000530user530@example.com      CA0016250NANALYST        00031CC05309053000450
00532Bob Smith           IT        202401280050310755550000531user531@example.com      NY0016375YENGINEER       00032CC05319053100465
00533Carol White         FIN       202401010050320005550000532user532@example.com      TX0016500YMANAGER        00033CC05329053200480
00534David Lee           OPS       202401020050330255550000533user533@example.com      FL0016625YCLERK          00034CC05339053300495
00535Eve Black           SALES     202401030050340505550000534user534@example.com      WA0016750YDIRECTOR       00035CC05349053400510
00536Frank Green         HR        202401040050350755550000535user535@example.com      CA0016875NANALYST        00036CC05359053500525
00537Grace Kim           IT        202401050050360005550000536user536@example.com      NY0017000YENGINEER       00037CC05369053600540
00538Henry Zhou          FIN       202401060050370255550000537user537@example.com      TX0017125YMANAGER        00038CC05379053700555
00539Ivy Patel           OPS       202401070050380505550000538user538@example.com      FL0017250YCLERK          00039CC05389053800570
00540Jack Brown          SALES     202401080050390755550000539user539@example.com      WA0017375YDIRECTOR       00040CC05399053900585
00541Alice Johnson       HR        202401090050400005550000540user540@example.com      CA0017500NANALYST        00041CC05409054000600
00542Bob Smith           IT        202401100050410255550000541user541@example.com      NY0017625YENGINEER       00042CC05419054100615
00543Carol White         FIN       202401110050420505550000542user542@example.com      TX0017750YMANAGER        00043CC05429054200630
00544David Lee           OPS       202401120050430755550000543user543@example.com      FL0017875YCLERK          00044CC05439054300645
00545Eve Black           SALES     202401130050440005550000544user544@example.com      WA0018000YDIRECTOR       00045CC05449054400660
00546Frank Green         HR        202401140050450255550000545user545@example.com      CA0018125NANALYST        00046CC05459054500675
00547Grace Kim           IT        202401150050460505550000546user546@example.com      NY0018250YENGINEER       00047CC05469054600690
00548Henry Zhou          FIN       202401160050470755550000547user547@example.com      TX0018375YMANAGER        00048CC05479054700705
00549Ivy Patel           OPS       202401170050480005550000548user548@example.com      FL0018500YCLERK          00049CC05489054800720
00550Jack Brown          SALES     202401180050490255550000549user549@example.com      WA0018625YDIRECTOR       00050CC05499054900735
00551Alice Johnson       HR        202401190050500505550000550user550@example.com      CA0018750NANALYST        00001CC05509055000750
00552Bob Smith           IT        202401200050510755550000551user551@example.com      NY0018875YENGINEER       00002CC05519055100765
00553Carol White         FIN       202401210050520005550000552user552@example.com      TX0019000YMANAGER        00003CC05529055200780
00554David Lee           OPS       202401220050530255550000553user553@example.com      FL0019125YCLERK          00004CC05539055300795
00555Eve Black           SALES     202401230050540505550000554user554@example.com      WA0019250YDIRECTOR       00005CC05549055400810
00556Frank Green         HR        202401240050550755550000555user555@example.com      CA0019375NANALYST        00006CC05559055500825
00557Grace Kim           IT        202401250050560005550000556user556@example.com      NY0019500YENGINEER       00007CC05569055600840
00558Henry Zhou          FIN       202401260050570255550000557user557@example.com      TX0019625YMANAGER        00008CC05579055700855
00559Ivy Patel           OPS       202401270050580505550000558user558@example.com      FL0019750YCLERK          00009CC05589055800870
00560Jack Brown          SALES     202401280050590755550000559user559@example.com      WA0019875YDIRECTOR       00010CC05599055900885
00561Alice Johnson       HR        202401010050600005550000560user560@example.com      CA0020000NANALYST        00011CC05609056000900
00562Bob Smith           IT        202401020050610255550000561user561@example.com      NY0020125YENGINEER       00012CC05619056100915
00563Carol White         FIN       202401030050620505550000562user562@example.com      TX0020250YMANAGER        00013CC05629056200930
00564David Lee           OPS       202401040050630755550000563user563@example.com      FL0020375YCLERK          00014CC05639056300945
00565Eve Black           SALES     202401050050640005550000564user564@example.com      WA0020500YDIRECTOR       00015CC05649056400960
00566Frank Green         HR        202401060050650255550000565user565@example.com      CA0020625NANALYST        00016CC05659056500975
00567Grace Kim           IT        202401070050660505550000566user566@example.com      NY0020750YENGINEER       00017CC05669056600990
00568Henry Zhou          FIN       202401080050670755550000567user567@example.com      TX0020875YMANAGER        00018CC05679056701005
00569Ivy Patel           OPS       202401090050680005550000568user568@example.com      FL0021000YCLERK          00019CC05689056801020
00570Jack Brown          SALES     202401100050690255550000569user569@example.com      WA0021125YDIRECTOR       00020CC05699056901035
00571Alice Johnson       HR        202401110050700505550000570user570@example.com      CA0021250NANALYST        00021CC05709057001050
00572Bob Smith           IT        202401120050710755550000571user571@example.com      NY0021375YENGINEER       00022CC05719057101065
00573Carol White         FIN       202401130050720005550000572user572@example.com      TX0021500YMANAGER        00023CC05729057201080
00574David Lee           OPS       202401140050730255550000573user573@example.com      FL0021625YCLERK          00024CC05739057301095
00575Eve Black           SALES     202401150050740505550000574user574@example.com      WA0021750YDIRECTOR       00025CC05749057401110
00576Frank Green         HR        202401160050750755550000575user575@example.com      CA0021875NANALYST        00026CC05759057501125
00577Grace Kim           IT        202401170050760005550000576user576@example.com      NY0022000YENGINEER       00027CC05769057601140
00578Henry Zhou          FIN       202401180050770255550000577user577@example.com      TX0022125YMANAGER        00028CC05779057701155
00579Ivy Patel           OPS       202401190050780505550000578user578@example.com      FL0022250YCLERK          00029CC05789057801170
00580Jack Brown          SALES     202401200050790755550000579user579@example.com      WA0022375YDIRECTOR       00030CC05799057901185
00581Alice Johnson       HR        202401210050800005550000580user580@example.com      CA0022500NANALYST        00031CC05809058001200
00582Bob Smith           IT        202401220050810255550000581user581@example.com      NY0022625YENGINEER       00032CC05819058101215
00583Carol White         FIN       202401230050820505550000582user582@example.com      TX0022750YMANAGER        00033CC05829058201230
00584David Lee           OPS       202401240050830755550000583user583@example.com      FL0022875YCLERK          00034CC05839058301245
00585Eve Black           SALES     202401250050840005550000584user584@example.com      WA0023000YDIRECTOR       00035CC05849058401260
00586Frank Green         HR        202401260050850255550000585user585@example.com      CA0023125NANALYST        00036CC05859058501275
00587Grace Kim           IT        202401270050860505550000586user586@example.com      NY0023250YENGINEER       00037CC05869058601290
00588Henry Zhou          FIN       202401280050870755550000587user587@example.com      TX0023375YMANAGER        00038CC05879058701305
00589Ivy Patel           OPS       202401010050880005550000588user588@example.com      FL0023500YCLERK          00039CC05889058801320
00590Jack Brown          SALES     202401020050890255550000589user589@example.com      WA0023625YDIRECTOR       00040CC05899058901335
00591Alice Johnson       HR        202401030050900505550000590user590@example.com      CA0023750NANALYST        00041CC05909059001350
00592Bob Smith           IT        202401040050910755550000591user591@example.com      NY0023875YENGINEER       00042CC05919059101365
00593Carol White         FIN       202401050050920005550000592user592@example.com      TX0024000YMANAGER        00043CC05929059201380
00594David Lee           OPS       202401060050930255550000593user593@example.com      FL0024125YCLERK          00044CC05939059301395
00595Eve Black           SALES     202401070050940505550000594user594@example.com      WA0024250YDIRECTOR       00045CC05949059401410
00596Frank Green         HR        202401080050950755550000595user595@example.com      CA0024375NANALYST        00046CC05959059501425
00597Grace Kim           IT        202401090050960005550000596user596@example.com      NY0024500YENGINEER       00047CC05969059601440
00598Henry Zhou          FIN       202401100050970255550000597user597@example.com      TX0024625YMANAGER        00048CC05979059701455
00599Ivy Patel           OPS       202401110050980505550000598user598@example.com      FL0024750YCLERK          00049CC05989059801470
00600Jack Brown          SALES     202401120050990755550000599user599@example.com      WA0024875YDIRECTOR       00050CC05999059901485
00601Alice Johnson       HR        202401130051000005550000600user600@example.com      CA0000000NANALYST        00001CC06009060000000
00602Bob Smith           IT        202401140051010255550000601user601@example.com      NY0000125YENGINEER       00002CC06019060100015
00603Carol White         FIN       202401150051020505550000602user602@example.com      TX0000250YMANAGER        00003CC06029060200030
00604David Lee           OPS       202401160051030755550000603user603@example.com      FL0000375YCLERK          00004CC06039060300045
00605Eve Black           SALES     202401170051040005550000604user604@example.com      WA0000500YDIRECTOR       00005CC06049060400060
00606Frank Green         HR        202401180051050255550000605user605@example.com      CA0000625NANALYST        00006CC06059060500075
00607Grace Kim           IT        202401190051060505550000606user606@example.com      NY0000750YENGINEER       00007CC06069060600090
00608Henry Zhou          FIN       202401200051070755550000607user607@example.com      TX0000875YMANAGER        00008CC06079060700105
00609Ivy Patel           OPS       202401210051080005550000608user608@example.com      FL0001000YCLERK          00009CC06089060800120
00610Jack Brown          SALES     202401220051090255550000609user609@example.com      WA0001125YDIRECTOR       00010CC06099060900135
00611Alice Johnson       HR        202401230051100505550000610user610@example.com      CA0001250NANALYST        00011CC06109061000150
00612Bob Smith           IT        202401240051110755550000611user611@example.com      NY0001375YENGINEER       00012CC06119061100165
00613Carol White         FIN       202401250051120005550000612user612@example.com      TX0001500YMANAGER        00013CC06129061200180
00614David Lee           OPS       202401260051130255550000613user613@example.com      FL0001625YCLERK          00014CC06139061300195
00615Eve Black           SALES     202401270051140505550000614user614@example.com      WA0001750YDIRECTOR       00015CC06149061400210
00616Frank Green         HR        202401280051150755550000615user615@example.com      CA0001875NANALYST        00016CC06159061500225
00617Grace Kim           IT        202401010051160005550000616user616@example.com      NY0002000YENGINEER       00017CC06169061600240
00618Henry Zhou          FIN       202401020051170255550000617user617@example.com      TX0002125YMANAGER        00018CC06179061700255
00619Ivy Patel           OPS       202401030051180505550000618user618@example.com      FL0002250YCLERK          00019CC06189061800270
00620Jack Brown          SALES     202401040051190755550000619user619@example.com      WA0002375YDIRECTOR       00020CC06199061900285
00621Alice Johnson       HR        202401050051200005550000620user620@example.com      CA0002500NANALYST        00021CC06209062000300
00622Bob Smith           IT        202401060051210255550000621user621@example.com      NY0002625YENGINEER       00022CC06219062100315
00623Carol White         FIN       202401070051220505550000622user622@example.com      TX0002750YMANAGER        00023CC06229062200330
00624David Lee           OPS       202401080051230755550000623user623@example.com      FL0002875YCLERK          00024CC06239062300345
00625Eve Black           SALES     202401090051240005550000624user624@example.com      WA0003000YDIRECTOR       00025CC06249062400360
00626Frank Green         HR        202401100051250255550000625user625@example.com      CA0003125NANALYST        00026CC06259062500375
00627Grace Kim           IT        202401110051260505550000626user626@example.com      NY0003250YENGINEER       00027CC06269062600390
00628Henry Zhou          FIN       202401120051270755550000627user627@example.com      TX0003375YMANAGER        00028CC06279062700405
00629Ivy Patel           OPS       202401130051280005550000628user628@example.com      FL0003500YCLERK          00029CC06289062800420
00630Jack Brown          SALES     202401140051290255550000629user629@example.com      WA0003625YDIRECTOR       00030CC06299062900435
00631Alice Johnson       HR        202401150051300505550000630user630@example.com      CA0003750NANALYST        00031CC06309063000450
00632Bob Smith           IT        202401160051310755550000631user631@example.com      NY0003875YENGINEER       00032CC06319063100465
00633Carol White         FIN       202401170051320005550000632user632@example.com      TX0004000YMANAGER        00033CC06329063200480
00634David Lee           OPS       202401180051330255550000633user633@example.com      FL0004125YCLERK          00034CC06339063300495
00635Eve Black           SALES     202401190051340505550000634user634@example.com      WA0004250YDIRECTOR       00035CC06349063400510
00636Frank Green         HR        202401200051350755550000635user635@example.com      CA0004375NANALYST        00036CC06359063500525
00637Grace Kim           IT        202401210051360005550000636user636@example.com      NY0004500YENGINEER       00037CC06369063600540
00638Henry Zhou          FIN       202401220051370255550000637user637@example.com      TX0004625YMANAGER        00038CC06379063700555
00639Ivy Patel           OPS       202401230051380505550000638user638@example.com      FL0004750YCLERK          00039CC06389063800570
00640Jack Brown          SALES     202401240051390755550000639user639@example.com      WA0004875YDIRECTOR       00040CC06399063900585
00641Alice Johnson       HR        202401250051400005550000640user640@example.com      CA0005000NANALYST        00041CC06409064000600
00642Bob Smith           IT        202401260051410255550000641user641@example.com      NY0005125YENGINEER       00042CC06419064100615
00643Carol White         FIN       202401270051420505550000642user642@example.com      TX0005250YMANAGER        00043CC06429064200630
00644David Lee           OPS       202401280051430755550000643user643@example.com      FL0005375YCLERK          00044CC06439064300645
00645Eve Black           SALES     202401010051440005550000644user644@example.com      WA0005500YDIRECTOR       00045CC06449064400660
00646Frank Green         HR        202401020051450255550000645user645@example.com      CA0005625NANALYST        00046CC06459064500675
00647Grace Kim           IT        202401030051460505550000646user646@example.com      NY0005750YENGINEER       00047CC06469064600690
00648Henry Zhou          FIN       202401040051470755550000647user647@example.com      TX0005875YMANAGER        00048CC06479064700705
00649Ivy Patel           OPS       202401050051480005550000648user648@example.com      FL0006000YCLERK          00049CC06489064800720
00650Jack Brown          SALES     202401060051490255550000649user649@example.com      WA0006125YDIRECTOR       00050CC06499064900735
00651Alice Johnson       HR        202401070051500505550000650user650@example.com      CA0006250NANALYST        00001CC06509065000750
00652Bob Smith           IT        202401080051510755550000651user651@example.com      NY0006375YENGINEER       00002CC06519065100765
00653Carol White         FIN       202401090051520005550000652user652@example.com      TX0006500YMANAGER        00003CC06529065200780
00654David Lee           OPS       202401100051530255550000653user653@example.com      FL0006625YCLERK          00004CC06539065300795
00655Eve Black           SALES     202401110051540505550000654user654@example.com      WA0006750YDIRECTOR       00005CC06549065400810
00656Frank Green         HR        202401120051550755550000655user655@example.com      CA0006875NANALYST        00006CC06559065500825
00657Grace Kim           IT        202401130051560005550000656user656@example.com      NY0007000YENGINEER       00007CC06569065600840
00658Henry Zhou          FIN       202401140051570255550000657user657@example.com      TX0007125YMANAGER        00008CC06579065700855
00659Ivy Patel           OPS       202401150051580505550000658user658@example.com      FL0007250YCLERK          00009CC06589065800870
00660Jack Brown          SALES     202401160051590755550000659user659@example.com      WA0007375YDIRECTOR       00010CC06599065900885
00661Alice Johnson       HR        202401170051600005550000660user660@example.com      CA0007500NANALYST        00011CC06609066000900
00662Bob Smith           IT        202401180051610255550000661user661@example.com      NY0007625YENGINEER       00012CC06619066100915
00663Carol White         FIN       202401190051620505550000662user662@example.com      TX0007750YMANAGER        00013CC06629066200930
00664David Lee           OPS       202401200051630755550000663user663@example.com      FL0007875YCLERK          00014CC06639066300945
00665Eve Black           SALES     202401210051640005550000664user664@example.com      WA0008000YDIRECTOR       00015CC06649066400960
00666Frank Green         HR        202401220051650255550000665user665@example.com      CA0008125NANALYST        00016CC06659066500975
00667Grace Kim           IT        202401230051660505550000666user666@example.com      NY0008250YENGINEER       00017CC06669066600990
00668Henry Zhou          FIN       202401240051670755550000667user667@example.com      TX0008375YMANAGER        00018CC06679066701005
00669Ivy Patel           OPS       202401250051680005550000668user668@example.com      FL0008500YCLERK          00019CC06689066801020
00670Jack Brown          SALES     202401260051690255550000669user669@example.com      WA0008625YDIRECTOR       00020CC06699066901035
00671Alice Johnson       HR        202401270051700505550000670user670@example.com      CA0008750NANALYST        00021CC06709067001050
00672Bob Smith           IT        202401280051710755550000671user671@example.com      NY0008875YENGINEER       00022CC06719067101065
00673Carol White         FIN       202401010051720005550000672user672@example.com      TX0009000YMANAGER        00023CC06729067201080
00674David Lee           OPS       202401020051730255550000673user673@example.com      FL0009125YCLERK          00024CC06739067301095
00675Eve Black           SALES     202401030051740505550000674user674@example.com      WA0009250YDIRECTOR       00025CC06749067401110
00676Frank Green         HR        202401040051750755550000675user675@example.com      CA0009375NANALYST        00026CC06759067501125
00677Grace Kim           IT        202401050051760005550000676user676@example.com      NY0009500YENGINEER       00027CC06769067601140
00678Henry Zhou          FIN       202401060051770255550000677user677@example.com      TX0009625YMANAGER        00028CC06779067701155
00679Ivy Patel           OPS       202401070051780505550000678user678@example.com      FL0009750YCLERK          00029CC06789067801170
00680Jack Brown          SALES     202401080051790755550000679user679@example.com      WA0009875YDIRECTOR       00030CC06799067901185
00681Alice Johnson       HR        202401090051800005550000680user680@example.com      CA0010000NANALYST        00031CC06809068001200
00682Bob Smith           IT        202401100051810255550000681user681@example.com      NY0010125YENGINEER       00032CC06819068101215
00683Carol White         FIN       202401110051820505550000682user682@example.com      TX0010250YMANAGER        00033CC06829068201230
00684David Lee           OPS       202401120051830755550000683user683@example.com      FL0010375YCLERK          00034CC06839068301245
00685Eve Black           SALES     202401130051840005550000684user684@example.com      WA0010500YDIRECTOR       00035CC06849068401260
00686Frank Green         HR        202401140051850255550000685user685@example.com      CA0010625NANALYST        00036CC06859068501275
00687Grace Kim           IT        202401150051860505550000686user686@example.com      NY0010750YENGINEER       00037CC06869068601290
00688Henry Zhou          FIN       202401160051870755550000687user687@example.com      TX0010875YMANAGER        00038CC06879068701305
00689Ivy Patel           OPS       202401170051880005550000688user688@example.com      FL0011000YCLERK          00039CC06889068801320
00690Jack Brown          SALES     202401180051890255550000689user689@example.com      WA0011125YDIRECTOR       00040CC06899068901335
00691Alice Johnson       HR        202401190051900505550000690user690@example.com      CA0011250NANALYST        00041CC06909069001350
00692Bob Smith           IT        202401200051910755550000691user691@example.com      NY0011375YENGINEER       00042CC06919069101365
00693Carol White         FIN       202401210051920005550000692user692@example.com      TX0011500YMANAGER        00043CC06929069201380
00694David Lee           OPS       202401220051930255550000693user693@example.com      FL0011625YCLERK          00044CC06939069301395
00695Eve Black           SALES     202401230051940505550000694user694@example.com      WA0011750YDIRECTOR       00045CC06949069401410
00696Frank Green         HR        202401240051950755550000695user695@example.com      CA0011875NANALYST        00046CC06959069501425
00697Grace Kim           IT        202401250051960005550000696user696@example.com      NY0012000YENGINEER       00047CC06969069601440
00698Henry Zhou          FIN       202401260051970255550000697user697@example.com      TX0012125YMANAGER        00048CC06979069701455
00699Ivy Patel           OPS       202401270051980505550000698user698@example.com      FL0012250YCLERK          00049CC06989069801470
00700Jack Brown          SALES     202401280051990755550000699user699@example.com      WA0012375YDIRECTOR       00050CC06999069901485
00701Alice Johnson       HR        202401010052000005550000700user700@example.com      CA0012500NANALYST        00001CC07009070000000
00702Bob Smith           IT        202401020052010255550000701user701@example.com      NY0012625YENGINEER       00002CC07019070100015
00703Carol White         FIN       202401030052020505550000702user702@example.com      TX0012750YMANAGER        00003CC07029070200030
00704David Lee           OPS       202401040052030755550000703user703@example.com      FL0012875YCLERK          00004CC07039070300045
00705Eve Black           SALES     202401050052040005550000704user704@example.com      WA0013000YDIRECTOR       00005CC07049070400060
00706Frank Green         HR        202401060052050255550000705user705@example.com      CA0013125NANALYST        00006CC07059070500075
00707Grace Kim           IT        202401070052060505550000706user706@example.com      NY0013250YENGINEER       00007CC07069070600090
00708Henry Zhou          FIN       202401080052070755550000707user707@example.com      TX0013375YMANAGER        00008CC07079070700105
00709Ivy Patel           OPS       202401090052080005550000708user708@example.com      FL0013500YCLERK          00009CC07089070800120
00710Jack Brown          SALES     202401100052090255550000709user709@example.com      WA0013625YDIRECTOR       00010CC07099070900135
00711Alice Johnson       HR        202401110052100505550000710user710@example.com      CA0013750NANALYST        00011CC07109071000150
00712Bob Smith           IT        202401120052110755550000711user711@example.com      NY0013875YENGINEER       00012CC07119071100165
00713Carol White         FIN       202401130052120005550000712user712@example.com      TX0014000YMANAGER        00013CC07129071200180
00714David Lee           OPS       202401140052130255550000713user713@example.com      FL0014125YCLERK          00014CC07139071300195
00715Eve Black           SALES     202401150052140505550000714user714@example.com      WA0014250YDIRECTOR       00015CC07149071400210
00716Frank Green         HR        202401160052150755550000715user715@example.com      CA0014375NANALYST        00016CC07159071500225
00717Grace Kim           IT        202401170052160005550000716user716@example.com      NY0014500YENGINEER       00017CC07169071600240
00718Henry Zhou          FIN       202401180052170255550000717user717@example.com      TX0014625YMANAGER        00018CC07179071700255
00719Ivy Patel           OPS       202401190052180505550000718user718@example.com      FL0014750YCLERK          00019CC07189071800270
00720Jack Brown          SALES     202401200052190755550000719user719@example.com      WA0014875YDIRECTOR       00020CC07199071900285
00721Alice Johnson       HR        202401210052200005550000720user720@example.com      CA0015000NANALYST        00021CC07209072000300
00722Bob Smith           IT        202401220052210255550000721user721@example.com      NY0015125YENGINEER       00022CC07219072100315
00723Carol White         FIN       202401230052220505550000722user722@example.com      TX0015250YMANAGER        00023CC07229072200330
00724David Lee           OPS       202401240052230755550000723user723@example.com      FL0015375YCLERK          00024CC07239072300345
00725Eve Black           SALES     202401250052240005550000724user724@example.com      WA0015500YDIRECTOR       00025CC07249072400360
00726Frank Green         HR        202401260052250255550000725user725@example.com      CA0015625NANALYST        00026CC07259072500375
00727Grace Kim           IT        202401270052260505550000726user726@example.com      NY0015750YENGINEER       00027CC07269072600390
00728Henry Zhou          FIN       202401280052270755550000727user727@example.com      TX0015875YMANAGER        00028CC07279072700405
00729Ivy Patel           OPS       202401010052280005550000728user728@example.com      FL0016000YCLERK          00029CC07289072800420
00730Jack Brown          SALES     202401020052290255550000729user729@example.com      WA0016125YDIRECTOR       00030CC07299072900435
00731Alice Johnson       HR        202401030052300505550000730user730@example.com      CA0016250NANALYST        00031CC07309073000450
00732Bob Smith           IT        202401040052310755550000731user731@example.com      NY0016375YENGINEER       00032CC07319073100465
00733Carol White         FIN       202401050052320005550000732user732@example.com      TX0016500YMANAGER        00033CC07329073200480
00734David Lee           OPS       202401060052330255550000733user733@example.com      FL0016625YCLERK          00034CC07339073300495
00735Eve Black           SALES     202401070052340505550000734user734@example.com      WA0016750YDIRECTOR       00035CC07349073400510
00736Frank Green         HR        202401080052350755550000735user735@example.com      CA0016875NANALYST        00036CC07359073500525
00737Grace Kim           IT        202401090052360005550000736user736@example.com      NY0017000YENGINEER       00037CC07369073600540
00738Henry Zhou          FIN       202401100052370255550000737user737@example.com      TX0017125YMANAGER        00038CC07379073700555
00739Ivy Patel           OPS       202401110052380505550000738user738@example.com      FL0017250YCLERK          00039CC07389073800570
00740Jack Brown          SALES     202401120052390755550000739user739@example.com      WA0017375YDIRECTOR       00040CC07399073900585
00741Alice Johnson       HR        202401130052400005550000740user740@example.com      CA0017500NANALYST        00041CC07409074000600
00742Bob Smith           IT        202401140052410255550000741user741@example.com      NY0017625YENGINEER       00042CC07419074100615
00743Carol White         FIN       202401150052420505550000742user742@example.com      TX0017750YMANAGER        00043CC07429074200630
00744David Lee           OPS       202401160052430755550000743user743@example.com      FL0017875YCLERK          00044CC07439074300645
00745Eve Black           SALES     202401170052440005550000744user744@example.com      WA0018000YDIRECTOR       00045CC07449074400660
00746Frank Green         HR        202401180052450255550000745user745@example.com      CA0018125NANALYST        00046CC07459074500675
